{
  "transactions": [
    {
      "hash": "0x6a4a049b3af9aa16bcc514fff1d511f7ccaa8a0db30236b7a71080e065673608",
      "transactionType": "CALL",
      "contractName": null,
      "contractAddress": "0x1e214c401032d2fea90278c20cc38f0738027253",
      "function": "approve(address,uint256)",
      "arguments": [
        "0xe493c34F27281d2626DeDEA73b25Da39d68Ba5c6",
        "1000000000000000000"
      ],
      "transaction": {
        "from": "0xd4d2e11093f53258b7a5629fec6d3a3d6daf4062",
        "to": "0x1e214c401032d2fea90278c20cc38f0738027253",
        "gas": "0x10c1a",
        "value": "0x0",
        "input": "0x095ea7b3000000000000000000000000e493c34f27281d2626dedea73b25da39d68ba5c60000000000000000000000000000000000000000000000000de0b6b3a7640000",
        "nonce": "0x3d",
        "chainId": "0xaa36a7"
      },
      "additionalContracts": [],
      "isFixedGasLimit": false
    },
    {
      "hash": "0x0a028794568fb69fa48612441642a20614b5313135eced8deb8e9891767f1f06",
      "transactionType": "CALL",
      "contractName": null,
      "contractAddress": "0xe493c34f27281d2626dedea73b25da39d68ba5c6",
      "function": "depositToL2(uint256)",
      "arguments": [
        "1000000000000000000"
      ],
      "transaction": {
        "from": "0xd4d2e11093f53258b7a5629fec6d3a3d6daf4062",
        "to": "0xe493c34f27281d2626dedea73b25da39d68ba5c6",
        "gas": "0x109a1",
        "value": "0x0",
        "input": "0xe09addc40000000000000000000000000000000000000000000000000de0b6b3a7640000",
        "nonce": "0x3e",
        "chainId": "0xaa36a7"
      },
      "additionalContracts": [],
      "isFixedGasLimit": false
    }
  ],
  "receipts": [
    {
      "status": "0x1",
      "cumulativeGasUsed": "0x976ed1",
      "logs": [
        {
          "address": "0x1e214c401032d2fea90278c20cc38f0738027253",
          "topics": [
            "0x8c5be1e5ebec7d5bd14f71427d1e84f3dd0314c0f7b2291e5b200ac8c7c3b925",
            "0x000000000000000000000000d4d2e11093f53258b7a5629fec6d3a3d6daf4062",
            "0x000000000000000000000000e493c34f27281d2626dedea73b25da39d68ba5c6"
          ],
          "data": "0x0000000000000000000000000000000000000000000000000de0b6b3a7640000",
          "blockHash": "0x8f328f11e98edd2b05aa516ed9f070c9af478c8503abb66311c729b9dc4b2e1f",
          "blockNumber": "0x7af004",
          "blockTimestamp": "0x67f144ec",
          "transactionHash": "0x6a4a049b3af9aa16bcc514fff1d511f7ccaa8a0db30236b7a71080e065673608",
          "transactionIndex": "0x5e",
          "logIndex": "0x94",
          "removed": false
        }
      ],
      "logsBloom": "0x00000000000000000000000000000000000000000200000000000000000000000020000000000000000000000000000000000000040002000000000000200000000000000000000000000000000000000002000000000000000000000000000000000000000000000000000000000000000000000000000000000400000000000000000000000000000000000000000000000000000000000000000000000000020000000000000000000000000000000000000000000000000000000000000000000000000000000000000000000000000000000000000000020000000000000010000000000000000000000000000000004000004000000000000000000000",
      "type": "0x2",
      "transactionHash": "0x6a4a049b3af9aa16bcc514fff1d511f7ccaa8a0db30236b7a71080e065673608",
      "transactionIndex": "0x5e",
      "blockHash": "0x8f328f11e98edd2b05aa516ed9f070c9af478c8503abb66311c729b9dc4b2e1f",
      "blockNumber": "0x7af004",
      "gasUsed": "0xb752",
      "effectiveGasPrice": "0x433ffd",
      "from": "0xd4d2e11093f53258b7a5629fec6d3a3d6daf4062",
      "to": "0x1e214c401032d2fea90278c20cc38f0738027253",
      "contractAddress": null
    },
    {
      "status": "0x1",
      "cumulativeGasUsed": "0x982f21",
      "logs": [
        {
          "address": "0x1e214c401032d2fea90278c20cc38f0738027253",
          "topics": [
            "0xddf252ad1be2c89b69c2b068fc378daa952ba7f163c4a11628f55a4df523b3ef",
            "0x000000000000000000000000d4d2e11093f53258b7a5629fec6d3a3d6daf4062",
            "0x000000000000000000000000e493c34f27281d2626dedea73b25da39d68ba5c6"
          ],
          "data": "0x0000000000000000000000000000000000000000000000000de0b6b3a7640000",
          "blockHash": "0x8f328f11e98edd2b05aa516ed9f070c9af478c8503abb66311c729b9dc4b2e1f",
          "blockNumber": "0x7af004",
          "blockTimestamp": "0x67f144ec",
          "transactionHash": "0x0a028794568fb69fa48612441642a20614b5313135eced8deb8e9891767f1f06",
          "transactionIndex": "0x5f",
          "logIndex": "0x95",
          "removed": false
        },
        {
          "address": "0xe493c34f27281d2626dedea73b25da39d68ba5c6",
          "topics": [
            "0x630ee295af3d6888697cd709cb2514395bfe88821709674fc61367ceba75730a"
          ],
          "data": "0x000000000000000000000000d4d2e11093f53258b7a5629fec6d3a3d6daf40620000000000000000000000000000000000000000000000000de0b6b3a76400000000000000000000000000000000000000000000000000000000000000000001",
          "blockHash": "0x8f328f11e98edd2b05aa516ed9f070c9af478c8503abb66311c729b9dc4b2e1f",
          "blockNumber": "0x7af004",
          "blockTimestamp": "0x67f144ec",
          "transactionHash": "0x0a028794568fb69fa48612441642a20614b5313135eced8deb8e9891767f1f06",
          "transactionIndex": "0x5f",
          "logIndex": "0x96",
          "removed": false
        }
      ],
      "logsBloom": "0x00000000000000000000000000000000000000000200000000000000000000000020000000000000000000000000000000000000040002000400000000000000000000000000800000000008000000000002000000000000000000000000000000000000000000000000000000000100004000000000000000000410000000000000000000000000000000000000000000000000000000000040000000000000000000000000000000000000000000000000000000000000000000000000000000000002000000000000000000000000000000000000000000020000000000000000000000000000000000400000000000004000004000000000000000000000",
      "type": "0x2",
      "transactionHash": "0x0a028794568fb69fa48612441642a20614b5313135eced8deb8e9891767f1f06",
      "transactionIndex": "0x5f",
      "blockHash": "0x8f328f11e98edd2b05aa516ed9f070c9af478c8503abb66311c729b9dc4b2e1f",
      "blockNumber": "0x7af004",
      "gasUsed": "0xc050",
      "effectiveGasPrice": "0x433ffd",
      "from": "0xd4d2e11093f53258b7a5629fec6d3a3d6daf4062",
      "to": "0xe493c34f27281d2626dedea73b25da39d68ba5c6",
      "contractAddress": null
    }
  ],
  "libraries": [],
  "pending": [],
  "returns": {},
  "timestamp": 1743865069,
  "chain": 11155111,
  "commit": "ede61e5"
}