{
  "transactions": [
    {
      "hash": "0x1354944f0cc777558dda2dc62a623aa3eb728f5925227f832a081f2540d7f0b7",
      "transactionType": "CALL",
      "contractName": null,
      "contractAddress": "0x1e214c401032d2fea90278c20cc38f0738027253",
      "function": "approve(address,uint256)",
      "arguments": [
        "0xe493c34F27281d2626DeDEA73b25Da39d68Ba5c6",
        "1000000000000000000"
      ],
      "transaction": {
        "from": "0xd4d2e11093f53258b7a5629fec6d3a3d6daf4062",
        "to": "0x1e214c401032d2fea90278c20cc38f0738027253",
        "gas": "0x10c1a",
        "value": "0x0",
        "input": "0x095ea7b3000000000000000000000000e493c34f27281d2626dedea73b25da39d68ba5c60000000000000000000000000000000000000000000000000de0b6b3a7640000",
        "nonce": "0x3b",
        "chainId": "0xaa36a7"
      },
      "additionalContracts": [],
      "isFixedGasLimit": false
    },
    {
      "hash": "0x29d6ad08d9e5f2a626fb1889a5be16870268d980d36e3d4165a94b99a0a92a83",
      "transactionType": "CALL",
      "contractName": null,
      "contractAddress": "0xe493c34f27281d2626dedea73b25da39d68ba5c6",
      "function": "depositToL2(uint256)",
      "arguments": [
        "1000000000000000000"
      ],
      "transaction": {
        "from": "0xd4d2e11093f53258b7a5629fec6d3a3d6daf4062",
        "to": "0xe493c34f27281d2626dedea73b25da39d68ba5c6",
        "gas": "0x1c227",
        "value": "0x0",
        "input": "0xe09addc40000000000000000000000000000000000000000000000000de0b6b3a7640000",
        "nonce": "0x3c",
        "chainId": "0xaa36a7"
      },
      "additionalContracts": [],
      "isFixedGasLimit": false
    }
  ],
  "receipts": [
    {
      "status": "0x1",
      "cumulativeGasUsed": "0xfedc09",
      "logs": [
        {
          "address": "0x1e214c401032d2fea90278c20cc38f0738027253",
          "topics": [
            "0x8c5be1e5ebec7d5bd14f71427d1e84f3dd0314c0f7b2291e5b200ac8c7c3b925",
            "0x000000000000000000000000d4d2e11093f53258b7a5629fec6d3a3d6daf4062",
            "0x000000000000000000000000e493c34f27281d2626dedea73b25da39d68ba5c6"
          ],
          "data": "0x0000000000000000000000000000000000000000000000000de0b6b3a7640000",
          "blockHash": "0xc08e914a30e92c508e76b8f8634d47ebe3b00d20eb0a5aea4a5c23c1ef770485",
          "blockNumber": "0x7aeff7",
          "blockTimestamp": "0x67f14450",
          "transactionHash": "0x1354944f0cc777558dda2dc62a623aa3eb728f5925227f832a081f2540d7f0b7",
          "transactionIndex": "0xb2",
          "logIndex": "0x117",
          "removed": false
        }
      ],
      "logsBloom": "0x00000000000000000000000000000000000000000200000000000000000000000020000000000000000000000000000000000000040002000000000000200000000000000000000000000000000000000002000000000000000000000000000000000000000000000000000000000000000000000000000000000400000000000000000000000000000000000000000000000000000000000000000000000000020000000000000000000000000000000000000000000000000000000000000000000000000000000000000000000000000000000000000000020000000000000010000000000000000000000000000000004000004000000000000000000000",
      "type": "0x2",
      "transactionHash": "0x1354944f0cc777558dda2dc62a623aa3eb728f5925227f832a081f2540d7f0b7",
      "transactionIndex": "0xb2",
      "blockHash": "0xc08e914a30e92c508e76b8f8634d47ebe3b00d20eb0a5aea4a5c23c1ef770485",
      "blockNumber": "0x7aeff7",
      "gasUsed": "0xb752",
      "effectiveGasPrice": "0x47eca5",
      "from": "0xd4d2e11093f53258b7a5629fec6d3a3d6daf4062",
      "to": "0x1e214c401032d2fea90278c20cc38f0738027253",
      "contractAddress": null
    },
    {
      "status": "0x1",
      "cumulativeGasUsed": "0x10021f1",
      "logs": [
        {
          "address": "0x1e214c401032d2fea90278c20cc38f0738027253",
          "topics": [
            "0xddf252ad1be2c89b69c2b068fc378daa952ba7f163c4a11628f55a4df523b3ef",
            "0x000000000000000000000000d4d2e11093f53258b7a5629fec6d3a3d6daf4062",
            "0x000000000000000000000000e493c34f27281d2626dedea73b25da39d68ba5c6"
          ],
          "data": "0x0000000000000000000000000000000000000000000000000de0b6b3a7640000",
          "blockHash": "0xc08e914a30e92c508e76b8f8634d47ebe3b00d20eb0a5aea4a5c23c1ef770485",
          "blockNumber": "0x7aeff7",
          "blockTimestamp": "0x67f14450",
          "transactionHash": "0x29d6ad08d9e5f2a626fb1889a5be16870268d980d36e3d4165a94b99a0a92a83",
          "transactionIndex": "0xb3",
          "logIndex": "0x118",
          "removed": false
        },
        {
          "address": "0xe493c34f27281d2626dedea73b25da39d68ba5c6",
          "topics": [
            "0x630ee295af3d6888697cd709cb2514395bfe88821709674fc61367ceba75730a"
          ],
          "data": "0x000000000000000000000000d4d2e11093f53258b7a5629fec6d3a3d6daf40620000000000000000000000000000000000000000000000000de0b6b3a76400000000000000000000000000000000000000000000000000000000000000000000",
          "blockHash": "0xc08e914a30e92c508e76b8f8634d47ebe3b00d20eb0a5aea4a5c23c1ef770485",
          "blockNumber": "0x7aeff7",
          "blockTimestamp": "0x67f14450",
          "transactionHash": "0x29d6ad08d9e5f2a626fb1889a5be16870268d980d36e3d4165a94b99a0a92a83",
          "transactionIndex": "0xb3",
          "logIndex": "0x119",
          "removed": false
        }
      ],
      "logsBloom": "0x00000000000000000000000000000000000000000200000000000000000000000020000000000000000000000000000000000000040002000400000000000000000000000000800000000008000000000002000000000000000000000000000000000000000000000000000000000100004000000000000000000410000000000000000000000000000000000000000000000000000000000040000000000000000000000000000000000000000000000000000000000000000000000000000000000002000000000000000000000000000000000000000000020000000000000000000000000000000000400000000000004000004000000000000000000000",
      "type": "0x2",
      "transactionHash": "0x29d6ad08d9e5f2a626fb1889a5be16870268d980d36e3d4165a94b99a0a92a83",
      "transactionIndex": "0xb3",
      "blockHash": "0xc08e914a30e92c508e76b8f8634d47ebe3b00d20eb0a5aea4a5c23c1ef770485",
      "blockNumber": "0x7aeff7",
      "gasUsed": "0x145e8",
      "effectiveGasPrice": "0x47eca5",
      "from": "0xd4d2e11093f53258b7a5629fec6d3a3d6daf4062",
      "to": "0xe493c34f27281d2626dedea73b25da39d68ba5c6",
      "contractAddress": null
    }
  ],
  "libraries": [],
  "pending": [],
  "returns": {},
  "timestamp": 1743864913,
  "chain": 11155111,
  "commit": "ede61e5"
}